{
  "contractName": "EthPriceOracle",
  "abi": [
    {
      "inputs": [
        {
          "internalType": "address",
          "name": "_owner",
          "type": "address"
        }
      ],
      "stateMutability": "nonpayable",
      "type": "constructor"
    },
    {
      "anonymous": false,
      "inputs": [
        {
          "indexed": false,
          "internalType": "address",
          "name": "oracleAddress",
          "type": "address"
        }
      ],
      "name": "AddOracleEvent",
      "type": "event"
    },
    {
      "anonymous": false,
      "inputs": [
        {
          "indexed": false,
          "internalType": "address",
          "name": "callerAddress",
          "type": "address"
        },
        {
          "indexed": false,
          "internalType": "uint256",
          "name": "id",
          "type": "uint256"
        }
      ],
      "name": "GetLatestEthPriceEvent",
      "type": "event"
    },
    {
      "anonymous": false,
      "inputs": [
        {
          "indexed": false,
          "internalType": "address",
          "name": "oracleAddress",
          "type": "address"
        }
      ],
      "name": "RemoveOracleEvent",
      "type": "event"
    },
    {
      "anonymous": false,
      "inputs": [
        {
          "indexed": true,
          "internalType": "bytes32",
          "name": "role",
          "type": "bytes32"
        },
        {
          "indexed": true,
          "internalType": "bytes32",
          "name": "previousAdminRole",
          "type": "bytes32"
        },
        {
          "indexed": true,
          "internalType": "bytes32",
          "name": "newAdminRole",
          "type": "bytes32"
        }
      ],
      "name": "RoleAdminChanged",
      "type": "event"
    },
    {
      "anonymous": false,
      "inputs": [
        {
          "indexed": true,
          "internalType": "bytes32",
          "name": "role",
          "type": "bytes32"
        },
        {
          "indexed": true,
          "internalType": "address",
          "name": "account",
          "type": "address"
        },
        {
          "indexed": true,
          "internalType": "address",
          "name": "sender",
          "type": "address"
        }
      ],
      "name": "RoleGranted",
      "type": "event"
    },
    {
      "anonymous": false,
      "inputs": [
        {
          "indexed": true,
          "internalType": "bytes32",
          "name": "role",
          "type": "bytes32"
        },
        {
          "indexed": true,
          "internalType": "address",
          "name": "account",
          "type": "address"
        },
        {
          "indexed": true,
          "internalType": "address",
          "name": "sender",
          "type": "address"
        }
      ],
      "name": "RoleRevoked",
      "type": "event"
    },
    {
      "anonymous": false,
      "inputs": [
        {
          "indexed": false,
          "internalType": "uint256",
          "name": "ethPrice",
          "type": "uint256"
        },
        {
          "indexed": false,
          "internalType": "address",
          "name": "callerAddress",
          "type": "address"
        }
      ],
      "name": "SetLatestEthPriceEvent",
      "type": "event"
    },
    {
      "anonymous": false,
      "inputs": [
        {
          "indexed": false,
          "internalType": "uint256",
          "name": "threshold",
          "type": "uint256"
        }
      ],
      "name": "SetThresholdEvent",
      "type": "event"
    },
    {
      "inputs": [],
      "name": "DEFAULT_ADMIN_ROLE",
      "outputs": [
        {
          "internalType": "bytes32",
          "name": "",
          "type": "bytes32"
        }
      ],
      "stateMutability": "view",
      "type": "function",
      "constant": true
    },
    {
      "inputs": [],
      "name": "ORACLES",
      "outputs": [
        {
          "internalType": "bytes32",
          "name": "",
          "type": "bytes32"
        }
      ],
      "stateMutability": "view",
      "type": "function",
      "constant": true
    },
    {
      "inputs": [],
      "name": "OWNERS",
      "outputs": [
        {
          "internalType": "bytes32",
          "name": "",
          "type": "bytes32"
        }
      ],
      "stateMutability": "view",
      "type": "function",
      "constant": true
    },
    {
      "inputs": [
        {
          "internalType": "bytes32",
          "name": "role",
          "type": "bytes32"
        }
      ],
      "name": "getRoleAdmin",
      "outputs": [
        {
          "internalType": "bytes32",
          "name": "",
          "type": "bytes32"
        }
      ],
      "stateMutability": "view",
      "type": "function",
      "constant": true
    },
    {
      "inputs": [
        {
          "internalType": "bytes32",
          "name": "role",
          "type": "bytes32"
        },
        {
          "internalType": "address",
          "name": "account",
          "type": "address"
        }
      ],
      "name": "grantRole",
      "outputs": [],
      "stateMutability": "nonpayable",
      "type": "function"
    },
    {
      "inputs": [
        {
          "internalType": "bytes32",
          "name": "role",
          "type": "bytes32"
        },
        {
          "internalType": "address",
          "name": "account",
          "type": "address"
        }
      ],
      "name": "hasRole",
      "outputs": [
        {
          "internalType": "bool",
          "name": "",
          "type": "bool"
        }
      ],
      "stateMutability": "view",
      "type": "function",
      "constant": true
    },
    {
      "inputs": [
        {
          "internalType": "bytes32",
          "name": "role",
          "type": "bytes32"
        },
        {
          "internalType": "address",
          "name": "account",
          "type": "address"
        }
      ],
      "name": "renounceRole",
      "outputs": [],
      "stateMutability": "nonpayable",
      "type": "function"
    },
    {
      "inputs": [
        {
          "internalType": "bytes32",
          "name": "role",
          "type": "bytes32"
        },
        {
          "internalType": "address",
          "name": "account",
          "type": "address"
        }
      ],
      "name": "revokeRole",
      "outputs": [],
      "stateMutability": "nonpayable",
      "type": "function"
    },
    {
      "inputs": [
        {
          "internalType": "bytes4",
          "name": "interfaceId",
          "type": "bytes4"
        }
      ],
      "name": "supportsInterface",
      "outputs": [
        {
          "internalType": "bool",
          "name": "",
          "type": "bool"
        }
      ],
      "stateMutability": "view",
      "type": "function",
      "constant": true
    },
    {
      "inputs": [
        {
          "internalType": "address",
          "name": "_oracle",
          "type": "address"
        }
      ],
      "name": "addOracle",
      "outputs": [],
      "stateMutability": "nonpayable",
      "type": "function"
    },
    {
      "inputs": [
        {
          "internalType": "address",
          "name": "_oracle",
          "type": "address"
        }
      ],
      "name": "removeOracle",
      "outputs": [],
      "stateMutability": "nonpayable",
      "type": "function"
    },
    {
      "inputs": [
        {
          "internalType": "uint256",
          "name": "_threshold",
          "type": "uint256"
        }
      ],
      "name": "setThreshold",
      "outputs": [],
      "stateMutability": "nonpayable",
      "type": "function"
    },
    {
      "inputs": [],
      "name": "getLatestEthPrice",
      "outputs": [
        {
          "internalType": "uint256",
          "name": "",
          "type": "uint256"
        }
      ],
      "stateMutability": "nonpayable",
      "type": "function"
    },
    {
      "inputs": [
        {
          "internalType": "uint256",
          "name": "_ethPrice",
          "type": "uint256"
        },
        {
          "internalType": "address",
          "name": "_callerAddress",
          "type": "address"
        },
        {
          "internalType": "uint256",
          "name": "_id",
          "type": "uint256"
        }
      ],
      "name": "setLatestEthPrice",
      "outputs": [],
      "stateMutability": "nonpayable",
      "type": "function"
    }
  ],
  "bytecode": "0x608060405260006001556103e8600255600060035560006004553480156200002657600080fd5b506040516200204a3803806200204a83398181016040528101906200004c919062000315565b6200007e7f442e70e83397770c9f1520820e5555e76d9d4f0a415d9c72548c8daac6944e1f826200010960201b60201c565b620000b07f442e70e83397770c9f1520820e5555e76d9d4f0a415d9c72548c8daac6944e1f806200011f60201b60201c565b620001027fcd84ef2ca36db89bf10980ad745e905927b5d2a0649a4cc3e39f363eb89c26487f442e70e83397770c9f1520820e5555e76d9d4f0a415d9c72548c8daac6944e1f6200011f60201b60201c565b506200038f565b6200011b82826200017c60201b60201c565b5050565b8062000131836200026d60201b60201c565b837fbd79b86ffe0ab8e8776151514217cd7cacd52c909f66475c3af44e129f0b00ff60405160405180910390a480600080848152602001908152602001600020600101819055505050565b6200018e82826200028c60201b60201c565b6200026957600160008084815260200190815260200160002060000160008373ffffffffffffffffffffffffffffffffffffffff1673ffffffffffffffffffffffffffffffffffffffff16815260200190815260200160002060006101000a81548160ff0219169083151502179055506200020e620002f660201b60201c565b73ffffffffffffffffffffffffffffffffffffffff168173ffffffffffffffffffffffffffffffffffffffff16837f2f8788117e7eff1d82e926ec794901d17c78024a50270940304540a733656f0d60405160405180910390a45b5050565b6000806000838152602001908152602001600020600101549050919050565b600080600084815260200190815260200160002060000160008373ffffffffffffffffffffffffffffffffffffffff1673ffffffffffffffffffffffffffffffffffffffff16815260200190815260200160002060009054906101000a900460ff16905092915050565b600033905090565b6000815190506200030f8162000375565b92915050565b6000602082840312156200032857600080fd5b60006200033884828501620002fe565b91505092915050565b60006200034e8262000355565b9050919050565b600073ffffffffffffffffffffffffffffffffffffffff82169050919050565b620003808162000341565b81146200038c57600080fd5b50565b611cab806200039f6000396000f3fe608060405234801561001057600080fd5b50600436106100ea5760003560e01c8063960bfe041161008c578063cf642f1f11610066578063cf642f1f1461024b578063d547741f14610267578063df5dd1a514610283578063fdc85fc41461029f576100ea565b8063960bfe04146101f3578063a217fddf1461020f578063c68c10911461022d576100ea565b80632f2ff15d116100c85780632f2ff15d1461016d57806330c0b9ec1461018957806336568abe146101a757806391d14854146101c3576100ea565b806301ffc9a7146100ef578063248a9ca31461011f5780632a9078d61461014f575b600080fd5b61010960048036038101906101049190611311565b6102bb565b604051610116919061178d565b60405180910390f35b610139600480360381019061013491906112ac565b610335565b60405161014691906117a8565b60405180910390f35b610157610354565b60405161016491906117a8565b60405180910390f35b610187600480360381019061018291906112d5565b610378565b005b6101916103a1565b60405161019e91906118a5565b60405180910390f35b6101c160048036038101906101bc91906112d5565b610468565b005b6101dd60048036038101906101d891906112d5565b6104eb565b6040516101ea919061178d565b60405180910390f35b61020d6004803603810190610208919061133a565b610555565b005b610217610601565b60405161022491906117a8565b60405180910390f35b610235610608565b60405161024291906117a8565b60405180910390f35b61026560048036038101906102609190611363565b61062c565b005b610281600480360381019061027c91906112d5565b6109f5565b005b61029d60048036038101906102989190611283565b610a1e565b005b6102b960048036038101906102b49190611283565b610a9a565b005b60007f7965db0b000000000000000000000000000000000000000000000000000000007bffffffffffffffffffffffffffffffffffffffffffffffffffffffff1916827bffffffffffffffffffffffffffffffffffffffffffffffffffffffff1916148061032e575061032d82610b5b565b5b9050919050565b6000806000838152602001908152602001600020600101549050919050565b7f442e70e83397770c9f1520820e5555e76d9d4f0a415d9c72548c8daac6944e1f81565b61038182610335565b6103928161038d610bc5565b610bcd565b61039c8383610c6a565b505050565b6000600160008154809291906103b690611af5565b9190505550600060025442336001546040516020016103d79392919061170c565b6040516020818303038152906040528051906020012060001c6103fa9190611b6c565b905060016005600083815260200190815260200160002060006101000a81548160ff0219169083151502179055507f3d50a0c24e97813f35595d2f1f37dbf421d5e97f37abd4e222853e9b9c82c8d53382604051610459929190611764565b60405180910390a18091505090565b610470610bc5565b73ffffffffffffffffffffffffffffffffffffffff168173ffffffffffffffffffffffffffffffffffffffff16146104dd576040517f08c379a00000000000000000000000000000000000000000000000000000000081526004016104d490611865565b60405180910390fd5b6104e78282610d4a565b5050565b600080600084815260200190815260200160002060000160008373ffffffffffffffffffffffffffffffffffffffff1673ffffffffffffffffffffffffffffffffffffffff16815260200190815260200160002060009054906101000a900460ff16905092915050565b61057f7f442e70e83397770c9f1520820e5555e76d9d4f0a415d9c72548c8daac6944e1f336104eb565b6105be576040517f08c379a00000000000000000000000000000000000000000000000000000000081526004016105b590611825565b60405180910390fd5b806004819055507f0f4f9dbb729778e455b47da600927c51653092f52835705824cd1db65a29ed0d6004546040516105f691906118a5565b60405180910390a150565b6000801b81565b7fcd84ef2ca36db89bf10980ad745e905927b5d2a0649a4cc3e39f363eb89c264881565b6106567fcd84ef2ca36db89bf10980ad745e905927b5d2a0649a4cc3e39f363eb89c2648336104eb565b610695576040517f08c379a000000000000000000000000000000000000000000000000000000000815260040161068c90611845565b60405180910390fd5b6005600082815260200190815260200160002060009054906101000a900460ff166106f5576040517f08c379a00000000000000000000000000000000000000000000000000000000081526004016106ec90611885565b60405180910390fd5b6106fd611151565b60405180606001604052803373ffffffffffffffffffffffffffffffffffffffff1681526020018473ffffffffffffffffffffffffffffffffffffffff1681526020018581525090506006600083815260200190815260200160002081908060018154018082558091505060019003906000526020600020906003020160009091909190915060008201518160000160006101000a81548173ffffffffffffffffffffffffffffffffffffffff021916908373ffffffffffffffffffffffffffffffffffffffff16021790555060208201518160010160006101000a81548173ffffffffffffffffffffffffffffffffffffffff021916908373ffffffffffffffffffffffffffffffffffffffff1602179055506040820151816002015550506000600660008481526020019081526020016000208054905090506004548114156109ee576000805b60066000868152602001908152602001600020805490508110156108e8576108d36006600087815260200190815260200160002082815481106108b2577f4e487b7100000000000000000000000000000000000000000000000000000000600052603260045260246000fd5b90600052602060002090600302016002015483610e2b90919063ffffffff16565b915080806108e090611af5565b915050610846565b506108fc8282610e4190919063ffffffff16565b90506005600085815260200190815260200160002060006101000a81549060ff0219169055600660008581526020019081526020016000206000610940919061119e565b60008590508073ffffffffffffffffffffffffffffffffffffffff1663b5d73ba483876040518363ffffffff1660e01b81526004016109809291906118e9565b600060405180830381600087803b15801561099a57600080fd5b505af11580156109ae573d6000803e3d6000fd5b505050507f91b860381268a473101de3379abbb70abf7ea6c9d1735cf58b9816479ff3b72782876040516109e39291906118c0565b60405180910390a150505b5050505050565b6109fe82610335565b610a0f81610a0a610bc5565b610bcd565b610a198383610d4a565b505050565b610a487fcd84ef2ca36db89bf10980ad745e905927b5d2a0649a4cc3e39f363eb89c264882610378565b60036000815480929190610a5b90611af5565b91905055507fed46b7525d27f2470ee188e1d85693a6a8b59537b58701408b2f53588e63d1db81604051610a8f9190611749565b60405180910390a150565b600160035411610adf576040517f08c379a0000000000000000000000000000000000000000000000000000000008152600401610ad690611805565b60405180910390fd5b610b097fcd84ef2ca36db89bf10980ad745e905927b5d2a0649a4cc3e39f363eb89c2648826109f5565b60036000815480929190610b1c90611acb565b91905055507f8d35b822981364028d4bb40af1edcfd97f4e186c8ccf97bafcc9adc68bd58c6d81604051610b509190611749565b60405180910390a150565b60007f01ffc9a7000000000000000000000000000000000000000000000000000000007bffffffffffffffffffffffffffffffffffffffffffffffffffffffff1916827bffffffffffffffffffffffffffffffffffffffffffffffffffffffff1916149050919050565b600033905090565b610bd782826104eb565b610c6657610bfc8173ffffffffffffffffffffffffffffffffffffffff166014610e57565b610c0a8360001c6020610e57565b604051602001610c1b9291906116d2565b6040516020818303038152906040526040517f08c379a0000000000000000000000000000000000000000000000000000000008152600401610c5d91906117c3565b60405180910390fd5b5050565b610c7482826104eb565b610d4657600160008084815260200190815260200160002060000160008373ffffffffffffffffffffffffffffffffffffffff1673ffffffffffffffffffffffffffffffffffffffff16815260200190815260200160002060006101000a81548160ff021916908315150217905550610ceb610bc5565b73ffffffffffffffffffffffffffffffffffffffff168173ffffffffffffffffffffffffffffffffffffffff16837f2f8788117e7eff1d82e926ec794901d17c78024a50270940304540a733656f0d60405160405180910390a45b5050565b610d5482826104eb565b15610e2757600080600084815260200190815260200160002060000160008373ffffffffffffffffffffffffffffffffffffffff1673ffffffffffffffffffffffffffffffffffffffff16815260200190815260200160002060006101000a81548160ff021916908315150217905550610dcc610bc5565b73ffffffffffffffffffffffffffffffffffffffff168173ffffffffffffffffffffffffffffffffffffffff16837ff6391f5c32d9c69d2a47ea670b442974b53935d1edc7fd64eb21e047a839171b60405160405180910390a45b5050565b60008183610e399190611939565b905092915050565b60008183610e4f919061198f565b905092915050565b606060006002836002610e6a91906119c0565b610e749190611939565b67ffffffffffffffff811115610eb3577f4e487b7100000000000000000000000000000000000000000000000000000000600052604160045260246000fd5b6040519080825280601f01601f191660200182016040528015610ee55781602001600182028036833780820191505090505b5090507f300000000000000000000000000000000000000000000000000000000000000081600081518110610f43577f4e487b7100000000000000000000000000000000000000000000000000000000600052603260045260246000fd5b60200101907effffffffffffffffffffffffffffffffffffffffffffffffffffffffffffff1916908160001a9053507f780000000000000000000000000000000000000000000000000000000000000081600181518110610fcd577f4e487b7100000000000000000000000000000000000000000000000000000000600052603260045260246000fd5b60200101907effffffffffffffffffffffffffffffffffffffffffffffffffffffffffffff1916908160001a9053506000600184600261100d91906119c0565b6110179190611939565b90505b6001811115611103577f3031323334353637383961626364656600000000000000000000000000000000600f86166010811061107f577f4e487b7100000000000000000000000000000000000000000000000000000000600052603260045260246000fd5b1a60f81b8282815181106110bc577f4e487b7100000000000000000000000000000000000000000000000000000000600052603260045260246000fd5b60200101907effffffffffffffffffffffffffffffffffffffffffffffffffffffffffffff1916908160001a905350600485901c9450806110fc90611acb565b905061101a565b5060008414611147576040517f08c379a000000000000000000000000000000000000000000000000000000000815260040161113e906117e5565b60405180910390fd5b8091505092915050565b6040518060600160405280600073ffffffffffffffffffffffffffffffffffffffff168152602001600073ffffffffffffffffffffffffffffffffffffffff168152602001600081525090565b50805460008255600302906000526020600020908101906111bf91906111c2565b50565b5b8082111561122b57600080820160006101000a81549073ffffffffffffffffffffffffffffffffffffffff02191690556001820160006101000a81549073ffffffffffffffffffffffffffffffffffffffff02191690556002820160009055506003016111c3565b5090565b60008135905061123e81611c19565b92915050565b60008135905061125381611c30565b92915050565b60008135905061126881611c47565b92915050565b60008135905061127d81611c5e565b92915050565b60006020828403121561129557600080fd5b60006112a38482850161122f565b91505092915050565b6000602082840312156112be57600080fd5b60006112cc84828501611244565b91505092915050565b600080604083850312156112e857600080fd5b60006112f685828601611244565b92505060206113078582860161122f565b9150509250929050565b60006020828403121561132357600080fd5b600061133184828501611259565b91505092915050565b60006020828403121561134c57600080fd5b600061135a8482850161126e565b91505092915050565b60008060006060848603121561137857600080fd5b60006113868682870161126e565b93505060206113978682870161122f565b92505060406113a88682870161126e565b9150509250925092565b6113bb81611a1a565b82525050565b6113d26113cd82611a1a565b611b3e565b82525050565b6113e181611a2c565b82525050565b6113f081611a38565b82525050565b600061140182611912565b61140b818561191d565b935061141b818560208601611a98565b61142481611bfb565b840191505092915050565b600061143a82611912565b611444818561192e565b9350611454818560208601611a98565b80840191505092915050565b600061146d60208361191d565b91507f537472696e67733a20686578206c656e67746820696e73756666696369656e746000830152602082019050919050565b60006114ad601e8361191d565b91507f446f206e6f742072656d6f766520746865206c617374206f7261636c652100006000830152602082019050919050565b60006114ed600d8361191d565b91507f4e6f7420616e206f776e657221000000000000000000000000000000000000006000830152602082019050919050565b600061152d60178361192e565b91507f416363657373436f6e74726f6c3a206163636f756e74200000000000000000006000830152601782019050919050565b600061156d600e8361191d565b91507f4e6f7420616e206f7261636c65210000000000000000000000000000000000006000830152602082019050919050565b60006115ad60118361192e565b91507f206973206d697373696e6720726f6c65200000000000000000000000000000006000830152601182019050919050565b60006115ed602f8361191d565b91507f416363657373436f6e74726f6c3a2063616e206f6e6c792072656e6f756e636560008301527f20726f6c657320666f722073656c6600000000000000000000000000000000006020830152604082019050919050565b600061165360278361191d565b91507f546869732072657175657374206973206e6f7420696e206d792070656e64696e60008301527f67206c6973742e000000000000000000000000000000000000000000000000006020830152604082019050919050565b6116b581611a8e565b82525050565b6116cc6116c782611a8e565b611b62565b82525050565b60006116dd82611520565b91506116e9828561142f565b91506116f4826115a0565b9150611700828461142f565b91508190509392505050565b600061171882866116bb565b60208201915061172882856113c1565b60148201915061173882846116bb565b602082019150819050949350505050565b600060208201905061175e60008301846113b2565b92915050565b600060408201905061177960008301856113b2565b61178660208301846116ac565b9392505050565b60006020820190506117a260008301846113d8565b92915050565b60006020820190506117bd60008301846113e7565b92915050565b600060208201905081810360008301526117dd81846113f6565b905092915050565b600060208201905081810360008301526117fe81611460565b9050919050565b6000602082019050818103600083015261181e816114a0565b9050919050565b6000602082019050818103600083015261183e816114e0565b9050919050565b6000602082019050818103600083015261185e81611560565b9050919050565b6000602082019050818103600083015261187e816115e0565b9050919050565b6000602082019050818103600083015261189e81611646565b9050919050565b60006020820190506118ba60008301846116ac565b92915050565b60006040820190506118d560008301856116ac565b6118e260208301846113b2565b9392505050565b60006040820190506118fe60008301856116ac565b61190b60208301846116ac565b9392505050565b600081519050919050565b600082825260208201905092915050565b600081905092915050565b600061194482611a8e565b915061194f83611a8e565b9250827fffffffffffffffffffffffffffffffffffffffffffffffffffffffffffffffff0382111561198457611983611b9d565b5b828201905092915050565b600061199a82611a8e565b91506119a583611a8e565b9250826119b5576119b4611bcc565b5b828204905092915050565b60006119cb82611a8e565b91506119d683611a8e565b9250817fffffffffffffffffffffffffffffffffffffffffffffffffffffffffffffffff0483118215151615611a0f57611a0e611b9d565b5b828202905092915050565b6000611a2582611a6e565b9050919050565b60008115159050919050565b6000819050919050565b60007fffffffff0000000000000000000000000000000000000000000000000000000082169050919050565b600073ffffffffffffffffffffffffffffffffffffffff82169050919050565b6000819050919050565b60005b83811015611ab6578082015181840152602081019050611a9b565b83811115611ac5576000848401525b50505050565b6000611ad682611a8e565b91506000821415611aea57611ae9611b9d565b5b600182039050919050565b6000611b0082611a8e565b91507fffffffffffffffffffffffffffffffffffffffffffffffffffffffffffffffff821415611b3357611b32611b9d565b5b600182019050919050565b6000611b4982611b50565b9050919050565b6000611b5b82611c0c565b9050919050565b6000819050919050565b6000611b7782611a8e565b9150611b8283611a8e565b925082611b9257611b91611bcc565b5b828206905092915050565b7f4e487b7100000000000000000000000000000000000000000000000000000000600052601160045260246000fd5b7f4e487b7100000000000000000000000000000000000000000000000000000000600052601260045260246000fd5b6000601f19601f8301169050919050565b60008160601b9050919050565b611c2281611a1a565b8114611c2d57600080fd5b50565b611c3981611a38565b8114611c4457600080fd5b50565b611c5081611a42565b8114611c5b57600080fd5b50565b611c6781611a8e565b8114611c7257600080fd5b5056fea26469706673582212207f0eb27aa3b02b34b4705fafc34b664116ff84f41735cfffe3f66bf29102980964736f6c63430008000033",
  "immutableReferences": {},
  "source": "// SPDX-License-Identifier: MIT\r\npragma solidity ^0.8.0;\r\n\r\nimport \"@openzeppelin/contracts/access/AccessControl.sol\";\r\nimport \"@openzeppelin/contracts/utils/math/SafeMath.sol\";\r\nimport \"./CallerContractInterface.sol\";\r\n\r\ncontract EthPriceOracle is AccessControl {\r\n    bytes32 public constant OWNERS = keccak256(\"OWNERS\");\r\n    bytes32 public constant ORACLES = keccak256(\"ORACLES\");\r\n\r\n    using SafeMath for uint256;\r\n    uint private randNonce = 0;\r\n    uint private modulus = 1000;\r\n    uint private numOracles = 0;\r\n    uint private THRESHOLD = 0;\r\n\r\n    mapping(uint256 => bool) pendingRequests;\r\n\r\n    struct Response {\r\n        address oracleAddress;\r\n        address callerAddress;\r\n        uint256 ethPrice;\r\n    }\r\n\r\n    mapping(uint256 => Response[]) requestIdToResponse;\r\n\r\n    event GetLatestEthPriceEvent(address callerAddress, uint id);\r\n    event SetLatestEthPriceEvent(uint256 ethPrice, address callerAddress);\r\n    event AddOracleEvent(address oracleAddress);\r\n    event RemoveOracleEvent(address oracleAddress);\r\n    event SetThresholdEvent (uint threshold);\r\n\r\n    // TODO modify migrations\r\n    constructor (address _owner) {\r\n        _setupRole(OWNERS, _owner);\r\n        _setRoleAdmin(OWNERS, OWNERS);\r\n        _setRoleAdmin(ORACLES, OWNERS);\r\n    }\r\n\r\n    function addOracle(address _oracle) public {\r\n        grantRole(ORACLES, _oracle);\r\n        numOracles++;\r\n        emit AddOracleEvent(_oracle);\r\n    }\r\n\r\n    function removeOracle(address _oracle) public {\r\n        require(numOracles > 1, \"Do not remove the last oracle!\");\r\n        revokeRole(ORACLES, _oracle);\r\n        numOracles--;\r\n        emit RemoveOracleEvent(_oracle);\r\n    }\r\n\r\n    function setThreshold(uint _threshold) public {\r\n        require(hasRole(OWNERS, msg.sender), \"Not an owner!\");\r\n        THRESHOLD = _threshold;\r\n        emit SetThresholdEvent(THRESHOLD);\r\n    }\r\n\r\n    function getLatestEthPrice() external returns (uint256) {\r\n        randNonce++;\r\n        uint id = uint(keccak256(abi.encodePacked(block.timestamp, msg.sender, randNonce))) % modulus;\r\n        pendingRequests[id] = true;\r\n        emit GetLatestEthPriceEvent(msg.sender, id);\r\n        return id;\r\n    }\r\n\r\n    function setLatestEthPrice(uint256 _ethPrice, address _callerAddress, uint256 _id) public {\r\n        require(hasRole(ORACLES, msg.sender), \"Not an oracle!\");\r\n        require(pendingRequests[_id], \"This request is not in my pending list.\");\r\n\r\n        Response memory resp;\r\n        resp = Response(msg.sender, _callerAddress, _ethPrice);\r\n        requestIdToResponse[_id].push(resp);\r\n        uint numResponses = requestIdToResponse[_id].length;\r\n\r\n        if (numResponses == THRESHOLD) {\r\n            uint computedEthPrice = 0;\r\n            for (uint f = 0; f < requestIdToResponse[_id].length; f++) {\r\n                computedEthPrice = computedEthPrice.add(requestIdToResponse[_id][f].ethPrice);\r\n            }\r\n            computedEthPrice = computedEthPrice.div(numResponses);\r\n\r\n            delete pendingRequests[_id];\r\n            delete requestIdToResponse[_id];\r\n            CallerContractInterface callerContractInstance;\r\n            callerContractInstance = CallerContractInterface(_callerAddress);\r\n            callerContractInstance.callback(computedEthPrice, _id);\r\n\r\n            emit SetLatestEthPriceEvent(computedEthPrice, _callerAddress);\r\n        }\r\n    }\r\n}\r\n",
  "sourcePath": "C:/Users/Tushar/Documents/EthDev/Projects/EthPriceOracle/oracle/contracts/EthPriceOracle.sol",
  "compiler": {
    "name": "solc",
    "version": "0.8.0+commit.c7dfd78e.Emscripten.clang"
  },
  "schemaVersion": "3.4.1",
  "updatedAt": "2021-08-05T10:49:28.968Z",
  "networkType": "ethereum",
  "devdoc": {
    "kind": "dev",
    "methods": {
      "getRoleAdmin(bytes32)": {
        "details": "Returns the admin role that controls `role`. See {grantRole} and {revokeRole}. To change a role's admin, use {_setRoleAdmin}."
      },
      "grantRole(bytes32,address)": {
        "details": "Grants `role` to `account`. If `account` had not been already granted `role`, emits a {RoleGranted} event. Requirements: - the caller must have ``role``'s admin role."
      },
      "hasRole(bytes32,address)": {
        "details": "Returns `true` if `account` has been granted `role`."
      },
      "renounceRole(bytes32,address)": {
        "details": "Revokes `role` from the calling account. Roles are often managed via {grantRole} and {revokeRole}: this function's purpose is to provide a mechanism for accounts to lose their privileges if they are compromised (such as when a trusted device is misplaced). If the calling account had been granted `role`, emits a {RoleRevoked} event. Requirements: - the caller must be `account`."
      },
      "revokeRole(bytes32,address)": {
        "details": "Revokes `role` from `account`. If `account` had been granted `role`, emits a {RoleRevoked} event. Requirements: - the caller must have ``role``'s admin role."
      },
      "supportsInterface(bytes4)": {
        "details": "See {IERC165-supportsInterface}."
      }
    },
    "version": 1
  },
  "userdoc": {
    "kind": "user",
    "methods": {},
    "version": 1
  }
}